:020000040000FA
:100000000C9434000C9451000C9451000C94510049
:100010000C9451000C9451000C9451000C9451001C
:100020000C9451000C9451000C9451000C9451000C
:100030000C9451000C9451000C9451000C945100FC
:100040000C94D4000C9451000C9451000C94510069
:100050000C9451000C9451000C9451000C945100DC
:100060000C9451000C94510011241FBECFEFD8E026
:10007000DEBFCDBF11E0A0E0B1E0E8E6F4E002C0F1
:1000800005900D92A632B107D9F721E0A6E2B1E0C2
:1000900001C01D92AF32B207E1F70E941E010C941D
:1000A00032020C940000CF93DF9300D000D0CDB784
:1000B000DEB70197D8F019821A821B821C8249810F
:1000C0005A816B817C81483E53406105710588F7F8
:1000D000000049815A816B817C814F5F5F4F6F4F78
:1000E0007F4F49835A836B837C83E9CF0F900F90B6
:1000F0000F900F90DF91CF910895299A81E090E0C1
:100100000E945300299881E090E00C9453002898B5
:100110008BB90C947D00EF92FF920F931F93CF93B6
:10012000DF9300D000D000D0CDB7DEB7FE0131960E
:1001300010E000E07F012AE030E0009761F0053038
:10014000110549F00F5F1F4FB9010E94ED01805D5D
:100150008193CB01F2CF0115110559F0015011091E
:10016000F701E00FF11F8081289A8BB90E947D0072
:10017000F2CF26960FB6F894DEBF0FBECDBFDF914B
:10018000CF911F910F91FF90EF900895CF93DF9340
:10019000EC018991882329F0289A8BB90E947D006F
:1001A000F8CFDF91CF9108951F920F920FB60F9263
:1001B00011242F933F938F939F93AF93BF9380917D
:1001C0002B0190912C01A0912D01B0912E01309125
:1001D0002A0123E0230F2D3758F50196A11DB11DEB
:1001E00020932A0180932B0190932C01A0932D0141
:1001F000B0932E018091260190912701A0912801B2
:10020000B09129010196A11DB11D80932601909303
:100210002701A0932801B0932901BF91AF919F912D
:100220008F913F912F910F900FBE0F901F901895B7
:1002300026E8230F0296A11DB11DD2CF789484B574
:10024000826084BD84B5816084BD85B5826085BDD2
:1002500085B5816085BD80916E00816080936E0060
:100260001092810080918100826080938100809152
:100270008100816080938100809180008160809303
:1002800080008091B10084608093B1008091B000C3
:1002900081608093B00080917A00846080937A00BE
:1002A00080917A00826080937A0080917A008160E8
:1002B00080937A0080917A00806880937A0010920F
:1002C000C1008FEF8AB984B1836084B982E390E082
:1002D0000E94530088E30E9487008CE00E94870000
:1002E00086E00E94870081E00E94870082E090E023
:1002F0000E945300389880E480937C0087E88093C4
:100300007A0080E80E94870080E091E00E94C600A9
:1003100080EC0E9487008CE091E00E94C60088EE8D
:1003200093E00E94530044244A9483E0582E612CA9
:10033000712C10E390E0E92E90E0F92E80917A0084
:10034000806480937A0080917A0086FDFCCF809152
:100350007800C0917900DC2FC82F9E01A8E8B3E196
:100360000E942302A30192010E940102490180E838
:100370000E94870085E191E00E94C600209729F540
:10038000289A1BB90E947D008BE191E00E94C60073
:1003900080EC0E94870081E291E00E94C6008114F7
:1003A0009104B9F4289A1BB90E947D008BE191E079
:1003B0000E94C60088EC90E00E945300E114F10412
:1003C00009F4BCCF0E940000B9CFCE010E948B007F
:1003D000DBCFC4010E948B00E9CFAA1BBB1B51E1FC
:1003E00007C0AA1FBB1FA617B70710F0A61BB70BA5
:1003F000881F991F5A95A9F780959095BC01CD014A
:100400000895A1E21A2EAA1BBB1BFD010DC0AA1F55
:10041000BB1FEE1FFF1FA217B307E407F50720F06D
:10042000A21BB30BE40BF50B661F771F881F991FE8
:100430001A9469F760957095809590959B01AC0131
:10044000BD01CF010895A29FB001B39FC001A39F3A
:10045000700D811D1124911DB29F700D811D1124FD
:10046000911D0895F894FFCF4144433020524546F2
:100470003D3556004C6973746F2E2E2E0041444357
:0E0480003A20002020202020006D563A200057
:107E0000112484B714BE81FFF0D085E080938100F7
:107E100082E08093C00088E18093C10086E0809377
:107E2000C20080E18093C4008EE0C9D0259A86E02C
:107E300020E33CEF91E0309385002093840096BBD3
:107E4000B09BFECF1D9AA8958150A9F7CC24DD24C4
:107E500088248394B5E0AB2EA1E19A2EF3E0BF2EE7
:107E6000A2D0813461F49FD0082FAFD0023811F036
:107E7000013811F484E001C083E08DD089C08234E0
:107E800011F484E103C0853419F485E0A6D080C0E4
:107E9000853579F488D0E82EFF2485D0082F10E0AE
:107EA000102F00270E291F29000F111F8ED06801E7
:107EB0006FC0863521F484E090D080E0DECF843638
:107EC00009F040C070D06FD0082F6DD080E0C81688
:107ED00080E7D80618F4F601B7BEE895C0E0D1E017
:107EE00062D089930C17E1F7F0E0CF16F0E7DF06D8
:107EF00018F0F601B7BEE89568D007B600FCFDCFD4
:107F0000A601A0E0B1E02C9130E011968C91119780
:107F100090E0982F8827822B932B1296FA010C0160
:107F200087BEE89511244E5F5F4FF1E0A038BF0790
:107F300051F7F601A7BEE89507B600FCFDCF97BE46
:107F4000E89526C08437B1F42ED02DD0F82E2BD052
:107F50003CD0F601EF2C8F010F5F1F4F84911BD097
:107F6000EA94F801C1F70894C11CD11CFA94CF0C13
:107F7000D11C0EC0853739F428D08EE10CD085E9AC
:107F80000AD08FE07ACF813511F488E018D01DD067
:107F900080E101D065CF982F8091C00085FFFCCF94
:107FA0009093C60008958091C00087FFFCCF809118
:107FB000C00084FD01C0A8958091C6000895E0E648
:107FC000F0E098E1908380830895EDDF803219F02E
:107FD00088E0F5DFFFCF84E1DECF1F93182FE3DFCA
:107FE0001150E9F7F2DF1F91089580E0E8DFEE27F6
:047FF000FF270994CA
:027FFE00040479
:00000001FF
