:100000000C9435000C945D000C945D000C945D0024
:100010000C945D000C945D000C945D000C945D00EC
:100020000C945D000C945D000C945D000C945D00DC
:100030000C945D000C945D000C945D000C945D00CC
:100040000C9489010C945D000C94F9010C94D3017B
:100050000C945D000C945D000C945D000C945D00AC
:100060000C945D000C945D00060311241FBECFEFBD
:10007000D8E0DEBFCDBF11E0A0E0B1E0E6E7F6E0FA
:1000800002C005900D92A034B107D9F721E0A0E499
:10009000B1E001C01D92A73EB207E1F710E0C5E351
:1000A000D0E004C02197FE010E943303C433D1077E
:1000B000C9F70E942B020C9439030C940000AF92F4
:1000C000BF92CF92DF92EF92FF920F931F93CF9345
:1000D000DF936C017B018B01040F151FEB015E01A7
:1000E000AE18BF08C017D10759F06991D601ED913C
:1000F000FC910190F081E02DC6010995892B79F7DB
:10010000C501DF91CF911F910F91FF90EF90DF908C
:10011000CF90BF90AF900895FC01538D448D252F53
:1001200030E0842F90E0821B930B541710F0CF9691
:10013000089501970895FC01918D828D981761F0C3
:10014000A28DAE0FBF2FB11D5D968C91928D9F5FDA
:100150009F73928F90E008958FEF9FEF0895FC01B9
:10016000918D828D981731F0828DE80FF11D858D6C
:1001700090E008958FEF9FEF0895FC01918D228DFF
:10018000892F90E0805C9F4F821B91098F73992784
:1001900008958AE491E00E94BD0021E0892B09F4D2
:1001A00020E0822F089580E090E0892B29F00E94C2
:1001B000C90081110C9400000895FC01A48DA80FC2
:1001C000B92FB11DA35ABF4F2C91848D90E0019699
:1001D0008F739927848FA689B7892C93A089B189B9
:1001E0008C91837080648C93938D848D981306C05A
:1001F0000288F389E02D80818F7D80830895EF92BE
:10020000FF920F931F93CF93DF93EC0181E0888FD0
:100210009B8D8C8D98131AC0E889F989808185FFA0
:1002200015C09FB7F894EE89FF896083E889F98942
:1002300080818370806480839FBF81E090E0DF9144
:10024000CF911F910F91FF90EF900895F62E0B8D97
:1002500010E00F5F1F4F0F731127E02E8C8D8E1152
:100260000CC00FB607FCFACFE889F989808185FFB9
:10027000F5CFCE010E94DD00F1CFEB8DEC0FFD2F0D
:10028000F11DE35AFF4FF0829FB7F8940B8FEA8974
:10029000FB8980818062CFCFCF93DF93EC01888D83
:1002A0008823B9F0AA89BB89E889F9898C9185FDF1
:1002B00003C0808186FD0DC00FB607FCF7CF8C917F
:1002C00085FFF2CF808185FFEDCFCE010E94DD005A
:1002D000E9CFDF91CF910895CF93DF93FC01019097
:1002E0000020E9F73197AF01481B590BBC018AE4A4
:1002F00091E00E945F00EC0142E050E062E171E0B9
:100300008AE491E00E945F008C0F9D1FDF91CF91E6
:1003100008951F920F920FB60F9211242F933F93BF
:100320008F939F93AF93BF93809146019091470124
:10033000A0914801B09149013091450123E0230F7C
:100340002D3758F50196A11DB11D209345018093CD
:10035000460190934701A0934801B09349018091D1
:10036000410190914201A0914301B0914401019655
:10037000A11DB11D8093410190934201A0934301BF
:10038000B0934401BF91AF919F918F913F912F9175
:100390000F900FBE0F901F90189526E8230F02961E
:1003A000A11DB11DD2CF1F920F920FB60F92112433
:1003B0002F933F934F935F936F937F938F939F936D
:1003C000AF93BF93EF93FF938AE491E00E94DD0027
:1003D000FF91EF91BF91AF919F918F917F916F911D
:1003E0005F914F913F912F910F900FBE0F901F90F3
:1003F00018951F920F920FB60F9211242F938F937F
:100400009F93EF93FF93E0915A01F0915B018081FC
:10041000E0916001F091610182FD1BC090818091AB
:1004200063018F5F8F7320916401821741F0E09127
:100430006301F0E0E65BFE4F958F80936301FF91CF
:10044000EF919F918F912F910F900FBE0F901F9062
:1004500018958081F4CFCF93DF9300D000D0CDB733
:10046000DEB7789484B5826084BD84B5816084BD34
:1004700085B5826085BD85B5816085BD80916E0042
:10048000816080936E001092810080918100826073
:1004900080938100809181008160809381008091B0
:1004A00080008160809380008091B100846080939F
:1004B000B1008091B00081608093B00080917A009B
:1004C000846080937A0080917A00826080937A00C1
:1004D00080917A00816080937A0080917A008068B0
:1004E00080937A001092C100259A2D9852985A98BC
:1004F000E0915A01F0915B0182E08083E091560126
:10050000F09157011082E0915801F09159018FEC60
:10051000808310926201E0915E01F0915F0186E0BC
:100520008083E0915C01F0915D0180818061808336
:10053000E0915C01F0915D01808188608083E091B1
:100540005C01F0915D01808180688083E0915C01B5
:10055000F0915D0180818F7D808385E191E00E9433
:100560006C0180E2F82E00E010E0EE24E39489B103
:1005700082FB882780F925E130E021503109D9F04C
:1005800019821A821B821C8249815A816B817C816B
:10059000483E53406105710580F7000049815A814A
:1005A0006B817C814F5F5F4F6F4F7F4F49835A83D1
:1005B0006B837C83E9CF29B191E0322F347022FF25
:1005C00090E0891311C03323F1F080914001811133
:1005D0000BC085B18F2585B91D9B12C086E291E0C5
:1005E0000E946C01E09240010115110509F4BFCF92
:1005F0000E94C900882309F4BACF0E940000B7CF37
:1006000084E391E0EDCF10924001EECFEAE4F1E017
:100610001382128288EE93E0A0E0B0E08483958399
:10062000A683B78384E091E09183808385EC90E09A
:100630009587848784EC90E09787868780EC90E0AC
:10064000918B808B81EC90E0938B828B82EC90E09D
:10065000958B848B86EC90E0978B868B118E128E17
:10066000138E148E0895EE0FFF1F0590F491E02D68
:060670000994F894FFCF8D
:1006760000000000FF005F008C004C01BD009B00E5
:10068600AF000D0A0053697374656D6120696E6968
:10069600636961646F004C454420656E63656E64F2
:1006A60069646F004C4544206170616761646F0046
:00000001FF
